{
  "_format": "hh-sol-artifact-1",
  "contractName": "Abacus",
  "sourceName": "contracts/Addition.sol",
  "abi": [
    {
      "inputs": [
        {
          "internalType": "int256",
          "name": "n",
          "type": "int256"
        }
      ],
      "name": "addInteger",
      "outputs": [],
      "stateMutability": "nonpayable",
      "type": "function"
    },
    {
      "inputs": [],
      "name": "sumOfIntegers",
      "outputs": [
        {
          "internalType": "int256",
          "name": "",
          "type": "int256"
        }
      ],
      "stateMutability": "view",
      "type": "function"
    }
  ],
  "bytecode": "0x608060405234801561001057600080fd5b50610154806100206000396000f3fe608060405234801561001057600080fd5b50600436106100365760003560e01c8063418427121461003b5780634f3ba92814610057575b600080fd5b610055600480360381019061005091906100c7565b610075565b005b61005f610083565b60405161006c9190610103565b60405180910390f35b806000540160008190555050565b60008054905090565b600080fd5b6000819050919050565b6100a481610091565b81146100af57600080fd5b50565b6000813590506100c18161009b565b92915050565b6000602082840312156100dd576100dc61008c565b5b60006100eb848285016100b2565b91505092915050565b6100fd81610091565b82525050565b600060208201905061011860008301846100f4565b9291505056fea2646970667358221220ebcf50e3e6bbef6afd338549cdb802cdd18ccacae0763108b88f7d4b5f767ef164736f6c63430008180033",
  "linkReferences": {},
  "deployedLinkReferences": {}
}