{
  "_format": "hh-sol-artifact-1",
  "contractName": "StakeBesu",
  "sourceName": "contracts/StakingBesu.sol",
  "abi": [
    {
      "inputs": [],
      "stateMutability": "nonpayable",
      "type": "constructor"
    },
    {
      "inputs": [],
      "name": "Unstake",
      "outputs": [],
      "stateMutability": "nonpayable",
      "type": "function"
    },
    {
      "inputs": [],
      "name": "checkReward",
      "outputs": [
        {
          "internalType": "uint256",
          "name": "",
          "type": "uint256"
        }
      ],
      "stateMutability": "view",
      "type": "function"
    },
    {
      "inputs": [],
      "name": "claimReward",
      "outputs": [],
      "stateMutability": "nonpayable",
      "type": "function"
    },
    {
      "inputs": [],
      "name": "depositeRewardCoin",
      "outputs": [],
      "stateMutability": "payable",
      "type": "function"
    },
    {
      "inputs": [],
      "name": "increaseStakeAmount",
      "outputs": [],
      "stateMutability": "payable",
      "type": "function"
    },
    {
      "inputs": [
        {
          "internalType": "address",
          "name": "",
          "type": "address"
        }
      ],
      "name": "stakeDetails",
      "outputs": [
        {
          "internalType": "address",
          "name": "userAddress",
          "type": "address"
        },
        {
          "internalType": "uint256",
          "name": "stakeAmount",
          "type": "uint256"
        },
        {
          "internalType": "uint256",
          "name": "lastStakeTime",
          "type": "uint256"
        },
        {
          "internalType": "uint256",
          "name": "rewardRate",
          "type": "uint256"
        },
        {
          "internalType": "uint256",
          "name": "claimedReward",
          "type": "uint256"
        },
        {
          "internalType": "bool",
          "name": "isStakingActive",
          "type": "bool"
        }
      ],
      "stateMutability": "view",
      "type": "function"
    },
    {
      "inputs": [],
      "name": "startStaking",
      "outputs": [],
      "stateMutability": "payable",
      "type": "function"
    },
    {
      "inputs": [
        {
          "internalType": "uint256",
          "name": "reward",
          "type": "uint256"
        }
      ],
      "name": "widthdrawReward",
      "outputs": [],
      "stateMutability": "nonpayable",
      "type": "function"
    }
  ],
  "bytecode": "0x608060405234801561001057600080fd5b50336000806101000a81548173ffffffffffffffffffffffffffffffffffffffff021916908373ffffffffffffffffffffffffffffffffffffffff1602179055506119ff806100606000396000f3fe60806040526004361061007b5760003560e01c8063b88a802f1161004e578063b88a802f146100d4578063c4b24a46146100eb578063e68af66014610116578063fa2a9da9146101205761007b565b806305e471141461008057806361583941146100a957806371b0cbfa146100b35780637538eecf146100bd575b600080fd5b34801561008c57600080fd5b506100a760048036038101906100a291906111dc565b610162565b005b6100b1610438565b005b6100bb610442565b005b3480156100c957600080fd5b506100d261078b565b005b3480156100e057600080fd5b506100e96109b7565b005b3480156100f757600080fd5b50610100610cb0565b60405161010d9190611218565b60405180910390f35b61011e610da3565b005b34801561012c57600080fd5b5061014760048036038101906101429190611291565b611081565b604051610159969594939291906112e8565b60405180910390f35b6000600160003373ffffffffffffffffffffffffffffffffffffffff1673ffffffffffffffffffffffffffffffffffffffff1681526020019081526020016000206040518060c00160405290816000820160009054906101000a900473ffffffffffffffffffffffffffffffffffffffff1673ffffffffffffffffffffffffffffffffffffffff1673ffffffffffffffffffffffffffffffffffffffff168152602001600182015481526020016002820154815260200160038201548152602001600482015481526020016005820160009054906101000a900460ff1615151515815250509050806000015173ffffffffffffffffffffffffffffffffffffffff163373ffffffffffffffffffffffffffffffffffffffff16146102bb576040517f08c379a00000000000000000000000000000000000000000000000000000000081526004016102b2906113a6565b60405180910390fd5b8060800151821015610302576040517f08c379a00000000000000000000000000000000000000000000000000000000081526004016102f990611412565b60405180910390fd5b81816080018181516103149190611461565b915081815250503373ffffffffffffffffffffffffffffffffffffffff166108fc839081150290604051600060405180830381858888f19350505050158015610361573d6000803e3d6000fd5b5080600160003373ffffffffffffffffffffffffffffffffffffffff1673ffffffffffffffffffffffffffffffffffffffff16815260200190815260200160002060008201518160000160006101000a81548173ffffffffffffffffffffffffffffffffffffffff021916908373ffffffffffffffffffffffffffffffffffffffff1602179055506020820151816001015560408201518160020155606082015181600301556080820151816004015560a08201518160050160006101000a81548160ff0219169083151502179055509050505050565b6104406110ea565b565b60008054906101000a900473ffffffffffffffffffffffffffffffffffffffff1673ffffffffffffffffffffffffffffffffffffffff163373ffffffffffffffffffffffffffffffffffffffff16036104d0576040517f08c379a00000000000000000000000000000000000000000000000000000000081526004016104c7906114e1565b60405180910390fd5b60003411610513576040517f08c379a000000000000000000000000000000000000000000000000000000000815260040161050a9061154d565b60405180910390fd5b6000600160003373ffffffffffffffffffffffffffffffffffffffff1673ffffffffffffffffffffffffffffffffffffffff1681526020019081526020016000206040518060c00160405290816000820160009054906101000a900473ffffffffffffffffffffffffffffffffffffffff1673ffffffffffffffffffffffffffffffffffffffff1673ffffffffffffffffffffffffffffffffffffffff168152602001600182015481526020016002820154815260200160038201548152602001600482015481526020016005820160009054906101000a900460ff16151515158152505090508060a001511561063f576040517f08c379a0000000000000000000000000000000000000000000000000000000008152600401610636906115b9565b60405180910390fd5b33816000019073ffffffffffffffffffffffffffffffffffffffff16908173ffffffffffffffffffffffffffffffffffffffff1681525050348160200181815161068991906115d9565b9150818152505042816040018181525050600a81606001818152505060018160a001901515908115158152505080600160003373ffffffffffffffffffffffffffffffffffffffff1673ffffffffffffffffffffffffffffffffffffffff16815260200190815260200160002060008201518160000160006101000a81548173ffffffffffffffffffffffffffffffffffffffff021916908373ffffffffffffffffffffffffffffffffffffffff1602179055506020820151816001015560408201518160020155606082015181600301556080820151816004015560a08201518160050160006101000a81548160ff02191690831515021790555090505050565b6000600160003373ffffffffffffffffffffffffffffffffffffffff1673ffffffffffffffffffffffffffffffffffffffff1681526020019081526020016000206040518060c00160405290816000820160009054906101000a900473ffffffffffffffffffffffffffffffffffffffff1673ffffffffffffffffffffffffffffffffffffffff1673ffffffffffffffffffffffffffffffffffffffff168152602001600182015481526020016002820154815260200160038201548152602001600482015481526020016005820160009054906101000a900460ff1615151515815250509050600115158160a001511515146108bd576040517f08c379a00000000000000000000000000000000000000000000000000000000081526004016108b490611659565b60405180910390fd5b3373ffffffffffffffffffffffffffffffffffffffff166108fc826080015183602001516108eb91906115d9565b9081150290604051600060405180830381858888f19350505050158015610916573d6000803e3d6000fd5b50600160003373ffffffffffffffffffffffffffffffffffffffff1673ffffffffffffffffffffffffffffffffffffffff168152602001908152602001600020600080820160006101000a81549073ffffffffffffffffffffffffffffffffffffffff021916905560018201600090556002820160009055600382016000905560048201600090556005820160006101000a81549060ff0219169055505050565b6000600160003373ffffffffffffffffffffffffffffffffffffffff1673ffffffffffffffffffffffffffffffffffffffff1681526020019081526020016000206040518060c00160405290816000820160009054906101000a900473ffffffffffffffffffffffffffffffffffffffff1673ffffffffffffffffffffffffffffffffffffffff1673ffffffffffffffffffffffffffffffffffffffff168152602001600182015481526020016002820154815260200160038201548152602001600482015481526020016005820160009054906101000a900460ff16151515158152505090503373ffffffffffffffffffffffffffffffffffffffff16816000015173ffffffffffffffffffffffffffffffffffffffff1614610b10576040517f08c379a0000000000000000000000000000000000000000000000000000000008152600401610b07906116c5565b60405180910390fd5b8060a00151610b54576040517f08c379a0000000000000000000000000000000000000000000000000000000008152600401610b4b90611731565b60405180910390fd5b4260148260400151610b6691906115d9565b1115610ba7576040517f08c379a0000000000000000000000000000000000000000000000000000000008152600401610b9e906117c3565b60405180910390fd5b610bb98160200151826060015161117a565b81608001818151610bca91906115d9565b915081815250504281604001818152505080600160003373ffffffffffffffffffffffffffffffffffffffff1673ffffffffffffffffffffffffffffffffffffffff16815260200190815260200160002060008201518160000160006101000a81548173ffffffffffffffffffffffffffffffffffffffff021916908373ffffffffffffffffffffffffffffffffffffffff1602179055506020820151816001015560408201518160020155606082015181600301556080820151816004015560a08201518160050160006101000a81548160ff02191690831515021790555090505050565b600080600160003373ffffffffffffffffffffffffffffffffffffffff1673ffffffffffffffffffffffffffffffffffffffff1681526020019081526020016000206040518060c00160405290816000820160009054906101000a900473ffffffffffffffffffffffffffffffffffffffff1673ffffffffffffffffffffffffffffffffffffffff1673ffffffffffffffffffffffffffffffffffffffff168152602001600182015481526020016002820154815260200160038201548152602001600482015481526020016005820160009054906101000a900460ff1615151515815250509050806080015191505090565b6000600160003373ffffffffffffffffffffffffffffffffffffffff1673ffffffffffffffffffffffffffffffffffffffff1681526020019081526020016000206040518060c00160405290816000820160009054906101000a900473ffffffffffffffffffffffffffffffffffffffff1673ffffffffffffffffffffffffffffffffffffffff1673ffffffffffffffffffffffffffffffffffffffff168152602001600182015481526020016002820154815260200160038201548152602001600482015481526020016005820160009054906101000a900460ff16151515158152505090503373ffffffffffffffffffffffffffffffffffffffff16816000015173ffffffffffffffffffffffffffffffffffffffff1614610efc576040517f08c379a0000000000000000000000000000000000000000000000000000000008152600401610ef39061182f565b60405180910390fd5b8060a00151610f40576040517f08c379a0000000000000000000000000000000000000000000000000000000008152600401610f3790611731565b60405180910390fd5b60003411610f83576040517f08c379a0000000000000000000000000000000000000000000000000000000008152600401610f7a9061189b565b60405180910390fd5b60003490508082602001818151610f9a91906115d9565b915081815250504282604001818152505081600160003373ffffffffffffffffffffffffffffffffffffffff1673ffffffffffffffffffffffffffffffffffffffff16815260200190815260200160002060008201518160000160006101000a81548173ffffffffffffffffffffffffffffffffffffffff021916908373ffffffffffffffffffffffffffffffffffffffff1602179055506020820151816001015560408201518160020155606082015181600301556080820151816004015560a08201518160050160006101000a81548160ff0219169083151502179055509050505050565b60016020528060005260406000206000915090508060000160009054906101000a900473ffffffffffffffffffffffffffffffffffffffff16908060010154908060020154908060030154908060040154908060050160009054906101000a900460ff16905086565b60008054906101000a900473ffffffffffffffffffffffffffffffffffffffff1673ffffffffffffffffffffffffffffffffffffffff163373ffffffffffffffffffffffffffffffffffffffff1614611178576040517f08c379a000000000000000000000000000000000000000000000000000000000815260040161116f90611907565b60405180910390fd5b565b6000806064838561118b9190611927565b6111959190611998565b90508091505092915050565b600080fd5b6000819050919050565b6111b9816111a6565b81146111c457600080fd5b50565b6000813590506111d6816111b0565b92915050565b6000602082840312156111f2576111f16111a1565b5b6000611200848285016111c7565b91505092915050565b611212816111a6565b82525050565b600060208201905061122d6000830184611209565b92915050565b600073ffffffffffffffffffffffffffffffffffffffff82169050919050565b600061125e82611233565b9050919050565b61126e81611253565b811461127957600080fd5b50565b60008135905061128b81611265565b92915050565b6000602082840312156112a7576112a66111a1565b5b60006112b58482850161127c565b91505092915050565b6112c781611253565b82525050565b60008115159050919050565b6112e2816112cd565b82525050565b600060c0820190506112fd60008301896112be565b61130a6020830188611209565b6113176040830187611209565b6113246060830186611209565b6113316080830185611209565b61133e60a08301846112d9565b979650505050505050565b600082825260208201905092915050565b7f596f7520617265206e6f74206120757365722e00000000000000000000000000600082015250565b6000611390601383611349565b915061139b8261135a565b602082019050919050565b600060208201905081810360008301526113bf81611383565b9050919050565b7f506c6561736520636865636b20746865207265776172642066697273742e0000600082015250565b60006113fc601e83611349565b9150611407826113c6565b602082019050919050565b6000602082019050818103600083015261142b816113ef565b9050919050565b7f4e487b7100000000000000000000000000000000000000000000000000000000600052601160045260246000fd5b600061146c826111a6565b9150611477836111a6565b925082820390508181111561148f5761148e611432565b5b92915050565b7f4f776e6572206e6f7420616c6c6f7765642e0000000000000000000000000000600082015250565b60006114cb601283611349565b91506114d682611495565b602082019050919050565b600060208201905081810360008301526114fa816114be565b9050919050565b7f5374616b6520416d6f756e74203e203000000000000000000000000000000000600082015250565b6000611537601083611349565b915061154282611501565b602082019050919050565b600060208201905081810360008301526115668161152a565b9050919050565b7f596f7520616c7265616479207374617274207374616b696e672e000000000000600082015250565b60006115a3601a83611349565b91506115ae8261156d565b602082019050919050565b600060208201905081810360008301526115d281611596565b9050919050565b60006115e4826111a6565b91506115ef836111a6565b925082820190508082111561160757611606611432565b5b92915050565b7f5374616b696e67206973206e6f74206163746976650000000000000000000000600082015250565b6000611643601583611349565b915061164e8261160d565b602082019050919050565b6000602082019050818103600083015261167281611636565b9050919050565b7f41646472657373206e6f74206d6174636865642e000000000000000000000000600082015250565b60006116af601483611349565b91506116ba82611679565b602082019050919050565b600060208201905081810360008301526116de816116a2565b9050919050565b7f5374616b696e67206973206e6f74206163746976652e00000000000000000000600082015250565b600061171b601683611349565b9150611726826116e5565b602082019050919050565b6000602082019050818103600083015261174a8161170e565b9050919050565b7f7761697420666f72203230207365636f6e647320746f20636c61696d2072657760008201527f6172642e00000000000000000000000000000000000000000000000000000000602082015250565b60006117ad602483611349565b91506117b882611751565b604082019050919050565b600060208201905081810360008301526117dc816117a0565b9050919050565b7f41646472657373206e6f74206d61746163686564000000000000000000000000600082015250565b6000611819601483611349565b9150611824826117e3565b602082019050919050565b600060208201905081810360008301526118488161180c565b9050919050565b7f416d6f756e74203e203000000000000000000000000000000000000000000000600082015250565b6000611885600a83611349565b91506118908261184f565b602082019050919050565b600060208201905081810360008301526118b481611878565b9050919050565b7f4f6e6c79204f776e65722e000000000000000000000000000000000000000000600082015250565b60006118f1600b83611349565b91506118fc826118bb565b602082019050919050565b60006020820190508181036000830152611920816118e4565b9050919050565b6000611932826111a6565b915061193d836111a6565b925082820261194b816111a6565b9150828204841483151761196257611961611432565b5b5092915050565b7f4e487b7100000000000000000000000000000000000000000000000000000000600052601260045260246000fd5b60006119a3826111a6565b91506119ae836111a6565b9250826119be576119bd611969565b5b82820490509291505056fea264697066735822122091eeb8b633ffd38405aacabe7ee4f1a2ef8af5f3da4528c7b97e43211fd269ce64736f6c63430008180033",
  "linkReferences": {},
  "deployedLinkReferences": {}
}