{
  "_format": "hh-sol-artifact-1",
  "contractName": "BlockTunixCoin",
  "sourceName": "contracts/Erc20.sol",
  "abi": [
    {
      "inputs": [],
      "stateMutability": "nonpayable",
      "type": "constructor"
    },
    {
      "inputs": [
        {
          "internalType": "address",
          "name": "spender",
          "type": "address"
        },
        {
          "internalType": "uint256",
          "name": "allowance",
          "type": "uint256"
        },
        {
          "internalType": "uint256",
          "name": "needed",
          "type": "uint256"
        }
      ],
      "name": "ERC20InsufficientAllowance",
      "type": "error"
    },
    {
      "inputs": [
        {
          "internalType": "address",
          "name": "sender",
          "type": "address"
        },
        {
          "internalType": "uint256",
          "name": "balance",
          "type": "uint256"
        },
        {
          "internalType": "uint256",
          "name": "needed",
          "type": "uint256"
        }
      ],
      "name": "ERC20InsufficientBalance",
      "type": "error"
    },
    {
      "inputs": [
        {
          "internalType": "address",
          "name": "approver",
          "type": "address"
        }
      ],
      "name": "ERC20InvalidApprover",
      "type": "error"
    },
    {
      "inputs": [
        {
          "internalType": "address",
          "name": "receiver",
          "type": "address"
        }
      ],
      "name": "ERC20InvalidReceiver",
      "type": "error"
    },
    {
      "inputs": [
        {
          "internalType": "address",
          "name": "sender",
          "type": "address"
        }
      ],
      "name": "ERC20InvalidSender",
      "type": "error"
    },
    {
      "inputs": [
        {
          "internalType": "address",
          "name": "spender",
          "type": "address"
        }
      ],
      "name": "ERC20InvalidSpender",
      "type": "error"
    },
    {
      "anonymous": false,
      "inputs": [
        {
          "indexed": true,
          "internalType": "address",
          "name": "owner",
          "type": "address"
        },
        {
          "indexed": true,
          "internalType": "address",
          "name": "spender",
          "type": "address"
        },
        {
          "indexed": false,
          "internalType": "uint256",
          "name": "value",
          "type": "uint256"
        }
      ],
      "name": "Approval",
      "type": "event"
    },
    {
      "anonymous": false,
      "inputs": [
        {
          "indexed": true,
          "internalType": "address",
          "name": "from",
          "type": "address"
        },
        {
          "indexed": true,
          "internalType": "address",
          "name": "to",
          "type": "address"
        },
        {
          "indexed": false,
          "internalType": "uint256",
          "name": "value",
          "type": "uint256"
        }
      ],
      "name": "Transfer",
      "type": "event"
    },
    {
      "inputs": [
        {
          "internalType": "address",
          "name": "owner",
          "type": "address"
        },
        {
          "internalType": "address",
          "name": "spender",
          "type": "address"
        }
      ],
      "name": "allowance",
      "outputs": [
        {
          "internalType": "uint256",
          "name": "",
          "type": "uint256"
        }
      ],
      "stateMutability": "view",
      "type": "function"
    },
    {
      "inputs": [
        {
          "internalType": "address",
          "name": "spender",
          "type": "address"
        },
        {
          "internalType": "uint256",
          "name": "value",
          "type": "uint256"
        }
      ],
      "name": "approve",
      "outputs": [
        {
          "internalType": "bool",
          "name": "",
          "type": "bool"
        }
      ],
      "stateMutability": "nonpayable",
      "type": "function"
    },
    {
      "inputs": [
        {
          "internalType": "address",
          "name": "account",
          "type": "address"
        }
      ],
      "name": "balanceOf",
      "outputs": [
        {
          "internalType": "uint256",
          "name": "",
          "type": "uint256"
        }
      ],
      "stateMutability": "view",
      "type": "function"
    },
    {
      "inputs": [],
      "name": "decimals",
      "outputs": [
        {
          "internalType": "uint8",
          "name": "",
          "type": "uint8"
        }
      ],
      "stateMutability": "view",
      "type": "function"
    },
    {
      "inputs": [
        {
          "internalType": "address",
          "name": "to",
          "type": "address"
        },
        {
          "internalType": "uint256",
          "name": "amount",
          "type": "uint256"
        }
      ],
      "name": "mint",
      "outputs": [],
      "stateMutability": "nonpayable",
      "type": "function"
    },
    {
      "inputs": [],
      "name": "name",
      "outputs": [
        {
          "internalType": "string",
          "name": "",
          "type": "string"
        }
      ],
      "stateMutability": "view",
      "type": "function"
    },
    {
      "inputs": [],
      "name": "symbol",
      "outputs": [
        {
          "internalType": "string",
          "name": "",
          "type": "string"
        }
      ],
      "stateMutability": "view",
      "type": "function"
    },
    {
      "inputs": [],
      "name": "totalSupply",
      "outputs": [
        {
          "internalType": "uint256",
          "name": "",
          "type": "uint256"
        }
      ],
      "stateMutability": "view",
      "type": "function"
    },
    {
      "inputs": [
        {
          "internalType": "address",
          "name": "to",
          "type": "address"
        },
        {
          "internalType": "uint256",
          "name": "value",
          "type": "uint256"
        }
      ],
      "name": "transfer",
      "outputs": [
        {
          "internalType": "bool",
          "name": "",
          "type": "bool"
        }
      ],
      "stateMutability": "nonpayable",
      "type": "function"
    },
    {
      "inputs": [
        {
          "internalType": "address",
          "name": "from",
          "type": "address"
        },
        {
          "internalType": "address",
          "name": "to",
          "type": "address"
        },
        {
          "internalType": "uint256",
          "name": "value",
          "type": "uint256"
        }
      ],
      "name": "transferEther",
      "outputs": [],
      "stateMutability": "nonpayable",
      "type": "function"
    },
    {
      "inputs": [
        {
          "internalType": "address",
          "name": "from",
          "type": "address"
        },
        {
          "internalType": "address",
          "name": "to",
          "type": "address"
        },
        {
          "internalType": "uint256",
          "name": "value",
          "type": "uint256"
        }
      ],
      "name": "transferFrom",
      "outputs": [
        {
          "internalType": "bool",
          "name": "",
          "type": "bool"
        }
      ],
      "stateMutability": "nonpayable",
      "type": "function"
    }
  ],
  "bytecode": "0x60806040523480156200001157600080fd5b506040518060400160405280600e81526020017f426c6f636b54756e6978436f696e0000000000000000000000000000000000008152506040518060400160405280600381526020017f425443000000000000000000000000000000000000000000000000000000000081525081600390816200008f919062000324565b508060049081620000a1919062000324565b5050506200040b565b600081519050919050565b7f4e487b7100000000000000000000000000000000000000000000000000000000600052604160045260246000fd5b7f4e487b7100000000000000000000000000000000000000000000000000000000600052602260045260246000fd5b600060028204905060018216806200012c57607f821691505b602082108103620001425762000141620000e4565b5b50919050565b60008190508160005260206000209050919050565b60006020601f8301049050919050565b600082821b905092915050565b600060088302620001ac7fffffffffffffffffffffffffffffffffffffffffffffffffffffffffffffffff826200016d565b620001b886836200016d565b95508019841693508086168417925050509392505050565b6000819050919050565b6000819050919050565b600062000205620001ff620001f984620001d0565b620001da565b620001d0565b9050919050565b6000819050919050565b6200022183620001e4565b6200023962000230826200020c565b8484546200017a565b825550505050565b600090565b6200025062000241565b6200025d81848462000216565b505050565b5b8181101562000285576200027960008262000246565b60018101905062000263565b5050565b601f821115620002d4576200029e8162000148565b620002a9846200015d565b81016020851015620002b9578190505b620002d1620002c8856200015d565b83018262000262565b50505b505050565b600082821c905092915050565b6000620002f960001984600802620002d9565b1980831691505092915050565b6000620003148383620002e6565b9150826002028217905092915050565b6200032f82620000aa565b67ffffffffffffffff8111156200034b576200034a620000b5565b5b62000357825462000113565b6200036482828562000289565b600060209050601f8311600181146200039c576000841562000387578287015190505b62000393858262000306565b86555062000403565b601f198416620003ac8662000148565b60005b82811015620003d657848901518255600182019150602085019450602081019050620003af565b86831015620003f65784890151620003f2601f891682620002e6565b8355505b6001600288020188555050505b505050505050565b6110cd806200041b6000396000f3fe608060405234801561001057600080fd5b50600436106100a95760003560e01c8063313ce56711610071578063313ce5671461016657806340c10f191461018457806370a08231146101a057806395d89b41146101d0578063a9059cbb146101ee578063dd62ed3e1461021e576100a9565b806306fdde03146100ae578063095ea7b3146100cc5780630e96127a146100fc57806318160ddd1461011857806323b872dd14610136575b600080fd5b6100b661024e565b6040516100c39190610c49565b60405180910390f35b6100e660048036038101906100e19190610d04565b6102e0565b6040516100f39190610d5f565b60405180910390f35b61011660048036038101906101119190610d7a565b610303565b005b610120610313565b60405161012d9190610ddc565b60405180910390f35b610150600480360381019061014b9190610d7a565b61031d565b60405161015d9190610d5f565b60405180910390f35b61016e61034c565b60405161017b9190610e13565b60405180910390f35b61019e60048036038101906101999190610d04565b610355565b005b6101ba60048036038101906101b59190610e2e565b610415565b6040516101c79190610ddc565b60405180910390f35b6101d861045d565b6040516101e59190610c49565b60405180910390f35b61020860048036038101906102039190610d04565b6104ef565b6040516102159190610d5f565b60405180910390f35b61023860048036038101906102339190610e5b565b610512565b6040516102459190610ddc565b60405180910390f35b60606003805461025d90610eca565b80601f016020809104026020016040519081016040528092919081815260200182805461028990610eca565b80156102d65780601f106102ab576101008083540402835291602001916102d6565b820191906000526020600020905b8154815290600101906020018083116102b957829003601f168201915b5050505050905090565b6000806102eb610599565b90506102f88185856105a1565b600191505092915050565b61030e8383836105b3565b505050565b6000600254905090565b600080610328610599565b90506103358582856106a7565b6103408585856105b3565b60019150509392505050565b60006012905090565b60008111610398576040517f08c379a000000000000000000000000000000000000000000000000000000000815260040161038f90610f47565b60405180910390fd5b600073ffffffffffffffffffffffffffffffffffffffff168273ffffffffffffffffffffffffffffffffffffffff1603610407576040517f08c379a00000000000000000000000000000000000000000000000000000000081526004016103fe90610fb3565b60405180910390fd5b610411828261073b565b5050565b60008060008373ffffffffffffffffffffffffffffffffffffffff1673ffffffffffffffffffffffffffffffffffffffff168152602001908152602001600020549050919050565b60606004805461046c90610eca565b80601f016020809104026020016040519081016040528092919081815260200182805461049890610eca565b80156104e55780601f106104ba576101008083540402835291602001916104e5565b820191906000526020600020905b8154815290600101906020018083116104c857829003601f168201915b5050505050905090565b6000806104fa610599565b90506105078185856105b3565b600191505092915050565b6000600160008473ffffffffffffffffffffffffffffffffffffffff1673ffffffffffffffffffffffffffffffffffffffff16815260200190815260200160002060008373ffffffffffffffffffffffffffffffffffffffff1673ffffffffffffffffffffffffffffffffffffffff16815260200190815260200160002054905092915050565b600033905090565b6105ae83838360016107bd565b505050565b600073ffffffffffffffffffffffffffffffffffffffff168373ffffffffffffffffffffffffffffffffffffffff16036106255760006040517f96c6fd1e00000000000000000000000000000000000000000000000000000000815260040161061c9190610fe2565b60405180910390fd5b600073ffffffffffffffffffffffffffffffffffffffff168273ffffffffffffffffffffffffffffffffffffffff16036106975760006040517fec442f0500000000000000000000000000000000000000000000000000000000815260040161068e9190610fe2565b60405180910390fd5b6106a2838383610994565b505050565b60006106b38484610512565b90507fffffffffffffffffffffffffffffffffffffffffffffffffffffffffffffffff81146107355781811015610725578281836040517ffb8f41b200000000000000000000000000000000000000000000000000000000815260040161071c93929190610ffd565b60405180910390fd5b610734848484840360006107bd565b5b50505050565b600073ffffffffffffffffffffffffffffffffffffffff168273ffffffffffffffffffffffffffffffffffffffff16036107ad5760006040517fec442f050000000000000000000000000000000000000000000000000000000081526004016107a49190610fe2565b60405180910390fd5b6107b960008383610994565b5050565b600073ffffffffffffffffffffffffffffffffffffffff168473ffffffffffffffffffffffffffffffffffffffff160361082f5760006040517fe602df050000000000000000000000000000000000000000000000000000000081526004016108269190610fe2565b60405180910390fd5b600073ffffffffffffffffffffffffffffffffffffffff168373ffffffffffffffffffffffffffffffffffffffff16036108a15760006040517f94280d620000000000000000000000000000000000000000000000000000000081526004016108989190610fe2565b60405180910390fd5b81600160008673ffffffffffffffffffffffffffffffffffffffff1673ffffffffffffffffffffffffffffffffffffffff16815260200190815260200160002060008573ffffffffffffffffffffffffffffffffffffffff1673ffffffffffffffffffffffffffffffffffffffff16815260200190815260200160002081905550801561098e578273ffffffffffffffffffffffffffffffffffffffff168473ffffffffffffffffffffffffffffffffffffffff167f8c5be1e5ebec7d5bd14f71427d1e84f3dd0314c0f7b2291e5b200ac8c7c3b925846040516109859190610ddc565b60405180910390a35b50505050565b600073ffffffffffffffffffffffffffffffffffffffff168373ffffffffffffffffffffffffffffffffffffffff16036109e65780600260008282546109da9190611063565b92505081905550610ab9565b60008060008573ffffffffffffffffffffffffffffffffffffffff1673ffffffffffffffffffffffffffffffffffffffff16815260200190815260200160002054905081811015610a72578381836040517fe450d38c000000000000000000000000000000000000000000000000000000008152600401610a6993929190610ffd565b60405180910390fd5b8181036000808673ffffffffffffffffffffffffffffffffffffffff1673ffffffffffffffffffffffffffffffffffffffff16815260200190815260200160002081905550505b600073ffffffffffffffffffffffffffffffffffffffff168273ffffffffffffffffffffffffffffffffffffffff1603610b025780600260008282540392505081905550610b4f565b806000808473ffffffffffffffffffffffffffffffffffffffff1673ffffffffffffffffffffffffffffffffffffffff168152602001908152602001600020600082825401925050819055505b8173ffffffffffffffffffffffffffffffffffffffff168373ffffffffffffffffffffffffffffffffffffffff167fddf252ad1be2c89b69c2b068fc378daa952ba7f163c4a11628f55a4df523b3ef83604051610bac9190610ddc565b60405180910390a3505050565b600081519050919050565b600082825260208201905092915050565b60005b83811015610bf3578082015181840152602081019050610bd8565b60008484015250505050565b6000601f19601f8301169050919050565b6000610c1b82610bb9565b610c258185610bc4565b9350610c35818560208601610bd5565b610c3e81610bff565b840191505092915050565b60006020820190508181036000830152610c638184610c10565b905092915050565b600080fd5b600073ffffffffffffffffffffffffffffffffffffffff82169050919050565b6000610c9b82610c70565b9050919050565b610cab81610c90565b8114610cb657600080fd5b50565b600081359050610cc881610ca2565b92915050565b6000819050919050565b610ce181610cce565b8114610cec57600080fd5b50565b600081359050610cfe81610cd8565b92915050565b60008060408385031215610d1b57610d1a610c6b565b5b6000610d2985828601610cb9565b9250506020610d3a85828601610cef565b9150509250929050565b60008115159050919050565b610d5981610d44565b82525050565b6000602082019050610d746000830184610d50565b92915050565b600080600060608486031215610d9357610d92610c6b565b5b6000610da186828701610cb9565b9350506020610db286828701610cb9565b9250506040610dc386828701610cef565b9150509250925092565b610dd681610cce565b82525050565b6000602082019050610df16000830184610dcd565b92915050565b600060ff82169050919050565b610e0d81610df7565b82525050565b6000602082019050610e286000830184610e04565b92915050565b600060208284031215610e4457610e43610c6b565b5b6000610e5284828501610cb9565b91505092915050565b60008060408385031215610e7257610e71610c6b565b5b6000610e8085828601610cb9565b9250506020610e9185828601610cb9565b9150509250929050565b7f4e487b7100000000000000000000000000000000000000000000000000000000600052602260045260246000fd5b60006002820490506001821680610ee257607f821691505b602082108103610ef557610ef4610e9b565b5b50919050565b7f416d6f756e74203e203000000000000000000000000000000000000000000000600082015250565b6000610f31600a83610bc4565b9150610f3c82610efb565b602082019050919050565b60006020820190508181036000830152610f6081610f24565b9050919050565b7f416464726573737320213d20616464726573732830292e000000000000000000600082015250565b6000610f9d601783610bc4565b9150610fa882610f67565b602082019050919050565b60006020820190508181036000830152610fcc81610f90565b9050919050565b610fdc81610c90565b82525050565b6000602082019050610ff76000830184610fd3565b92915050565b60006060820190506110126000830186610fd3565b61101f6020830185610dcd565b61102c6040830184610dcd565b949350505050565b7f4e487b7100000000000000000000000000000000000000000000000000000000600052601160045260246000fd5b600061106e82610cce565b915061107983610cce565b925082820190508082111561109157611090611034565b5b9291505056fea264697066735822122083e278d5371cb00e18f105f50c4d1dd672a26ecd27cbbdf44c70bb4e6a93fc7564736f6c63430008180033",
  "linkReferences": {},
  "deployedLinkReferences": {}
}