{
  "_format": "hh-sol-artifact-1",
  "contractName": "Stake",
  "sourceName": "contracts/Staking.sol",
  "abi": [
    {
      "inputs": [
        {
          "internalType": "address",
          "name": "token_Address",
          "type": "address"
        }
      ],
      "stateMutability": "nonpayable",
      "type": "constructor"
    },
    {
      "inputs": [],
      "name": "Unstake",
      "outputs": [],
      "stateMutability": "nonpayable",
      "type": "function"
    },
    {
      "inputs": [],
      "name": "checkReward",
      "outputs": [
        {
          "internalType": "uint256",
          "name": "",
          "type": "uint256"
        }
      ],
      "stateMutability": "view",
      "type": "function"
    },
    {
      "inputs": [],
      "name": "claimReward",
      "outputs": [],
      "stateMutability": "nonpayable",
      "type": "function"
    },
    {
      "inputs": [],
      "name": "increaseStakeAmount",
      "outputs": [],
      "stateMutability": "payable",
      "type": "function"
    },
    {
      "inputs": [
        {
          "internalType": "address",
          "name": "",
          "type": "address"
        }
      ],
      "name": "stakeDetails",
      "outputs": [
        {
          "internalType": "address",
          "name": "userAddress",
          "type": "address"
        },
        {
          "internalType": "uint256",
          "name": "stakeAmount",
          "type": "uint256"
        },
        {
          "internalType": "uint256",
          "name": "lastStakeTime",
          "type": "uint256"
        },
        {
          "internalType": "uint256",
          "name": "rewardRate",
          "type": "uint256"
        },
        {
          "internalType": "uint256",
          "name": "claimedReward",
          "type": "uint256"
        },
        {
          "internalType": "bool",
          "name": "isStakingActive",
          "type": "bool"
        }
      ],
      "stateMutability": "view",
      "type": "function"
    },
    {
      "inputs": [],
      "name": "startStaking",
      "outputs": [],
      "stateMutability": "payable",
      "type": "function"
    },
    {
      "inputs": [
        {
          "internalType": "uint256",
          "name": "reward",
          "type": "uint256"
        }
      ],
      "name": "widthdrawReward",
      "outputs": [],
      "stateMutability": "nonpayable",
      "type": "function"
    }
  ],
  "bytecode": "0x60806040523480156200001157600080fd5b5060405162001cbc38038062001cbc83398181016040528101906200003791906200019b565b600073ffffffffffffffffffffffffffffffffffffffff168173ffffffffffffffffffffffffffffffffffffffff1603620000a9576040517f08c379a0000000000000000000000000000000000000000000000000000000008152600401620000a0906200022e565b60405180910390fd5b806000806101000a81548173ffffffffffffffffffffffffffffffffffffffff021916908373ffffffffffffffffffffffffffffffffffffffff16021790555033600160006101000a81548173ffffffffffffffffffffffffffffffffffffffff021916908373ffffffffffffffffffffffffffffffffffffffff1602179055505062000250565b600080fd5b600073ffffffffffffffffffffffffffffffffffffffff82169050919050565b6000620001638262000136565b9050919050565b620001758162000156565b81146200018157600080fd5b50565b60008151905062000195816200016a565b92915050565b600060208284031215620001b457620001b362000131565b5b6000620001c48482850162000184565b91505092915050565b600082825260208201905092915050565b7f546f6b656e4164647265737320213d2030000000000000000000000000000000600082015250565b600062000216601183620001cd565b91506200022382620001de565b602082019050919050565b60006020820190508181036000830152620002498162000207565b9050919050565b611a5c80620002606000396000f3fe6080604052600436106100705760003560e01c8063b88a802f1161004e578063b88a802f146100bf578063c4b24a46146100d6578063e68af66014610101578063fa2a9da91461010b57610070565b806305e471141461007557806371b0cbfa1461009e5780637538eecf146100a8575b600080fd5b34801561008157600080fd5b5061009c60048036038101906100979190611223565b61014d565b005b6100a661047f565b005b3480156100b457600080fd5b506100bd6107ca565b005b3480156100cb57600080fd5b506100d4610a8e565b005b3480156100e257600080fd5b506100eb610d87565b6040516100f8919061125f565b60405180910390f35b610109610e7a565b005b34801561011757600080fd5b50610132600480360381019061012d91906112d8565b611158565b6040516101449695949392919061132f565b60405180910390f35b6000600260003373ffffffffffffffffffffffffffffffffffffffff1673ffffffffffffffffffffffffffffffffffffffff1681526020019081526020016000206040518060c00160405290816000820160009054906101000a900473ffffffffffffffffffffffffffffffffffffffff1673ffffffffffffffffffffffffffffffffffffffff1673ffffffffffffffffffffffffffffffffffffffff168152602001600182015481526020016002820154815260200160038201548152602001600482015481526020016005820160009054906101000a900460ff1615151515815250509050806000015173ffffffffffffffffffffffffffffffffffffffff163373ffffffffffffffffffffffffffffffffffffffff16146102a6576040517f08c379a000000000000000000000000000000000000000000000000000000000815260040161029d906113ed565b60405180910390fd5b80608001518210156102ed576040517f08c379a00000000000000000000000000000000000000000000000000000000081526004016102e490611459565b60405180910390fd5b81816080018181516102ff91906114a8565b9150818152505060008054906101000a900473ffffffffffffffffffffffffffffffffffffffff1673ffffffffffffffffffffffffffffffffffffffff1663a9059cbb8260000151846040518363ffffffff1660e01b81526004016103659291906114dc565b6020604051808303816000875af1158015610384573d6000803e3d6000fd5b505050506040513d601f19601f820116820180604052508101906103a89190611531565b5080600260003373ffffffffffffffffffffffffffffffffffffffff1673ffffffffffffffffffffffffffffffffffffffff16815260200190815260200160002060008201518160000160006101000a81548173ffffffffffffffffffffffffffffffffffffffff021916908373ffffffffffffffffffffffffffffffffffffffff1602179055506020820151816001015560408201518160020155606082015181600301556080820151816004015560a08201518160050160006101000a81548160ff0219169083151502179055509050505050565b600160009054906101000a900473ffffffffffffffffffffffffffffffffffffffff1673ffffffffffffffffffffffffffffffffffffffff163373ffffffffffffffffffffffffffffffffffffffff160361050f576040517f08c379a0000000000000000000000000000000000000000000000000000000008152600401610506906115aa565b60405180910390fd5b60003411610552576040517f08c379a000000000000000000000000000000000000000000000000000000000815260040161054990611616565b60405180910390fd5b6000600260003373ffffffffffffffffffffffffffffffffffffffff1673ffffffffffffffffffffffffffffffffffffffff1681526020019081526020016000206040518060c00160405290816000820160009054906101000a900473ffffffffffffffffffffffffffffffffffffffff1673ffffffffffffffffffffffffffffffffffffffff1673ffffffffffffffffffffffffffffffffffffffff168152602001600182015481526020016002820154815260200160038201548152602001600482015481526020016005820160009054906101000a900460ff16151515158152505090508060a001511561067e576040517f08c379a000000000000000000000000000000000000000000000000000000000815260040161067590611682565b60405180910390fd5b33816000019073ffffffffffffffffffffffffffffffffffffffff16908173ffffffffffffffffffffffffffffffffffffffff168152505034816020018181516106c891906116a2565b9150818152505042816040018181525050600a81606001818152505060018160a001901515908115158152505080600260003373ffffffffffffffffffffffffffffffffffffffff1673ffffffffffffffffffffffffffffffffffffffff16815260200190815260200160002060008201518160000160006101000a81548173ffffffffffffffffffffffffffffffffffffffff021916908373ffffffffffffffffffffffffffffffffffffffff1602179055506020820151816001015560408201518160020155606082015181600301556080820151816004015560a08201518160050160006101000a81548160ff02191690831515021790555090505050565b6000600260003373ffffffffffffffffffffffffffffffffffffffff1673ffffffffffffffffffffffffffffffffffffffff1681526020019081526020016000206040518060c00160405290816000820160009054906101000a900473ffffffffffffffffffffffffffffffffffffffff1673ffffffffffffffffffffffffffffffffffffffff1673ffffffffffffffffffffffffffffffffffffffff168152602001600182015481526020016002820154815260200160038201548152602001600482015481526020016005820160009054906101000a900460ff1615151515815250509050600115158160a001511515146108fc576040517f08c379a00000000000000000000000000000000000000000000000000000000081526004016108f390611722565b60405180910390fd5b60008054906101000a900473ffffffffffffffffffffffffffffffffffffffff1673ffffffffffffffffffffffffffffffffffffffff1663a9059cbb826000015183608001516040518363ffffffff1660e01b815260040161095f9291906114dc565b6020604051808303816000875af115801561097e573d6000803e3d6000fd5b505050506040513d601f19601f820116820180604052508101906109a29190611531565b503373ffffffffffffffffffffffffffffffffffffffff166108fc82602001519081150290604051600060405180830381858888f193505050501580156109ed573d6000803e3d6000fd5b50600260003373ffffffffffffffffffffffffffffffffffffffff1673ffffffffffffffffffffffffffffffffffffffff168152602001908152602001600020600080820160006101000a81549073ffffffffffffffffffffffffffffffffffffffff021916905560018201600090556002820160009055600382016000905560048201600090556005820160006101000a81549060ff0219169055505050565b6000600260003373ffffffffffffffffffffffffffffffffffffffff1673ffffffffffffffffffffffffffffffffffffffff1681526020019081526020016000206040518060c00160405290816000820160009054906101000a900473ffffffffffffffffffffffffffffffffffffffff1673ffffffffffffffffffffffffffffffffffffffff1673ffffffffffffffffffffffffffffffffffffffff168152602001600182015481526020016002820154815260200160038201548152602001600482015481526020016005820160009054906101000a900460ff16151515158152505090503373ffffffffffffffffffffffffffffffffffffffff16816000015173ffffffffffffffffffffffffffffffffffffffff1614610be7576040517f08c379a0000000000000000000000000000000000000000000000000000000008152600401610bde9061178e565b60405180910390fd5b8060a00151610c2b576040517f08c379a0000000000000000000000000000000000000000000000000000000008152600401610c22906117fa565b60405180910390fd5b4260148260400151610c3d91906116a2565b1115610c7e576040517f08c379a0000000000000000000000000000000000000000000000000000000008152600401610c759061188c565b60405180910390fd5b610c90816020015182606001516111c1565b81608001818151610ca191906116a2565b915081815250504281604001818152505080600260003373ffffffffffffffffffffffffffffffffffffffff1673ffffffffffffffffffffffffffffffffffffffff16815260200190815260200160002060008201518160000160006101000a81548173ffffffffffffffffffffffffffffffffffffffff021916908373ffffffffffffffffffffffffffffffffffffffff1602179055506020820151816001015560408201518160020155606082015181600301556080820151816004015560a08201518160050160006101000a81548160ff02191690831515021790555090505050565b600080600260003373ffffffffffffffffffffffffffffffffffffffff1673ffffffffffffffffffffffffffffffffffffffff1681526020019081526020016000206040518060c00160405290816000820160009054906101000a900473ffffffffffffffffffffffffffffffffffffffff1673ffffffffffffffffffffffffffffffffffffffff1673ffffffffffffffffffffffffffffffffffffffff168152602001600182015481526020016002820154815260200160038201548152602001600482015481526020016005820160009054906101000a900460ff1615151515815250509050806080015191505090565b6000600260003373ffffffffffffffffffffffffffffffffffffffff1673ffffffffffffffffffffffffffffffffffffffff1681526020019081526020016000206040518060c00160405290816000820160009054906101000a900473ffffffffffffffffffffffffffffffffffffffff1673ffffffffffffffffffffffffffffffffffffffff1673ffffffffffffffffffffffffffffffffffffffff168152602001600182015481526020016002820154815260200160038201548152602001600482015481526020016005820160009054906101000a900460ff16151515158152505090503373ffffffffffffffffffffffffffffffffffffffff16816000015173ffffffffffffffffffffffffffffffffffffffff1614610fd3576040517f08c379a0000000000000000000000000000000000000000000000000000000008152600401610fca906118f8565b60405180910390fd5b8060a00151611017576040517f08c379a000000000000000000000000000000000000000000000000000000000815260040161100e906117fa565b60405180910390fd5b6000341161105a576040517f08c379a000000000000000000000000000000000000000000000000000000000815260040161105190611964565b60405180910390fd5b6000349050808260200181815161107191906116a2565b915081815250504282604001818152505081600260003373ffffffffffffffffffffffffffffffffffffffff1673ffffffffffffffffffffffffffffffffffffffff16815260200190815260200160002060008201518160000160006101000a81548173ffffffffffffffffffffffffffffffffffffffff021916908373ffffffffffffffffffffffffffffffffffffffff1602179055506020820151816001015560408201518160020155606082015181600301556080820151816004015560a08201518160050160006101000a81548160ff0219169083151502179055509050505050565b60026020528060005260406000206000915090508060000160009054906101000a900473ffffffffffffffffffffffffffffffffffffffff16908060010154908060020154908060030154908060040154908060050160009054906101000a900460ff16905086565b600080606483856111d29190611984565b6111dc91906119f5565b90508091505092915050565b600080fd5b6000819050919050565b611200816111ed565b811461120b57600080fd5b50565b60008135905061121d816111f7565b92915050565b600060208284031215611239576112386111e8565b5b60006112478482850161120e565b91505092915050565b611259816111ed565b82525050565b60006020820190506112746000830184611250565b92915050565b600073ffffffffffffffffffffffffffffffffffffffff82169050919050565b60006112a58261127a565b9050919050565b6112b58161129a565b81146112c057600080fd5b50565b6000813590506112d2816112ac565b92915050565b6000602082840312156112ee576112ed6111e8565b5b60006112fc848285016112c3565b91505092915050565b61130e8161129a565b82525050565b60008115159050919050565b61132981611314565b82525050565b600060c0820190506113446000830189611305565b6113516020830188611250565b61135e6040830187611250565b61136b6060830186611250565b6113786080830185611250565b61138560a0830184611320565b979650505050505050565b600082825260208201905092915050565b7f596f7520617265206e6f74206120757365722e00000000000000000000000000600082015250565b60006113d7601383611390565b91506113e2826113a1565b602082019050919050565b60006020820190508181036000830152611406816113ca565b9050919050565b7f506c6561736520636865636b20746865207265776172642066697273742e0000600082015250565b6000611443601e83611390565b915061144e8261140d565b602082019050919050565b6000602082019050818103600083015261147281611436565b9050919050565b7f4e487b7100000000000000000000000000000000000000000000000000000000600052601160045260246000fd5b60006114b3826111ed565b91506114be836111ed565b92508282039050818111156114d6576114d5611479565b5b92915050565b60006040820190506114f16000830185611305565b6114fe6020830184611250565b9392505050565b61150e81611314565b811461151957600080fd5b50565b60008151905061152b81611505565b92915050565b600060208284031215611547576115466111e8565b5b60006115558482850161151c565b91505092915050565b7f4f776e6572206e6f7420616c6c6f7765642e0000000000000000000000000000600082015250565b6000611594601283611390565b915061159f8261155e565b602082019050919050565b600060208201905081810360008301526115c381611587565b9050919050565b7f5374616b6520416d6f756e74203e203000000000000000000000000000000000600082015250565b6000611600601083611390565b915061160b826115ca565b602082019050919050565b6000602082019050818103600083015261162f816115f3565b9050919050565b7f596f7520616c7265616479207374617274207374616b696e672e000000000000600082015250565b600061166c601a83611390565b915061167782611636565b602082019050919050565b6000602082019050818103600083015261169b8161165f565b9050919050565b60006116ad826111ed565b91506116b8836111ed565b92508282019050808211156116d0576116cf611479565b5b92915050565b7f5374616b696e67206973206e6f74206163746976650000000000000000000000600082015250565b600061170c601583611390565b9150611717826116d6565b602082019050919050565b6000602082019050818103600083015261173b816116ff565b9050919050565b7f41646472657373206e6f74206d6174636865642e000000000000000000000000600082015250565b6000611778601483611390565b915061178382611742565b602082019050919050565b600060208201905081810360008301526117a78161176b565b9050919050565b7f5374616b696e67206973206e6f74206163746976652e00000000000000000000600082015250565b60006117e4601683611390565b91506117ef826117ae565b602082019050919050565b60006020820190508181036000830152611813816117d7565b9050919050565b7f7761697420666f72203230207365636f6e647320746f20636c61696d2072657760008201527f6172642e00000000000000000000000000000000000000000000000000000000602082015250565b6000611876602483611390565b91506118818261181a565b604082019050919050565b600060208201905081810360008301526118a581611869565b9050919050565b7f41646472657373206e6f74206d61746163686564000000000000000000000000600082015250565b60006118e2601483611390565b91506118ed826118ac565b602082019050919050565b60006020820190508181036000830152611911816118d5565b9050919050565b7f416d6f756e74203e203000000000000000000000000000000000000000000000600082015250565b600061194e600a83611390565b915061195982611918565b602082019050919050565b6000602082019050818103600083015261197d81611941565b9050919050565b600061198f826111ed565b915061199a836111ed565b92508282026119a8816111ed565b915082820484148315176119bf576119be611479565b5b5092915050565b7f4e487b7100000000000000000000000000000000000000000000000000000000600052601260045260246000fd5b6000611a00826111ed565b9150611a0b836111ed565b925082611a1b57611a1a6119c6565b5b82820490509291505056fea2646970667358221220089fcefc0765066386d808532ba6c48618cbd1416c7a32cd5b8ff992d3ae746664736f6c63430008180033",
  "linkReferences": {},
  "deployedLinkReferences": {}
}